{
  "contractName": "IoTACReg",
  "abi": [
    {
      "anonymous": false,
      "inputs": [
        {
          "indexed": false,
          "internalType": "bytes32",
          "name": "cert",
          "type": "bytes32"
        },
        {
          "indexed": false,
          "internalType": "string",
          "name": "MAC",
          "type": "string"
        },
        {
          "indexed": false,
          "internalType": "address",
          "name": "nodeAdd",
          "type": "address"
        }
      ],
      "name": "CertificateGenerated",
      "type": "event"
    },
    {
      "anonymous": false,
      "inputs": [
        {
          "indexed": false,
          "internalType": "uint256",
          "name": "nodeID",
          "type": "uint256"
        }
      ],
      "name": "NodeActivated",
      "type": "event"
    },
    {
      "anonymous": false,
      "inputs": [
        {
          "indexed": false,
          "internalType": "uint256",
          "name": "nodeID",
          "type": "uint256"
        }
      ],
      "name": "NodeAdded",
      "type": "event"
    },
    {
      "anonymous": false,
      "inputs": [
        {
          "indexed": false,
          "internalType": "uint256",
          "name": "nodeID",
          "type": "uint256"
        }
      ],
      "name": "NodeDeactivated",
      "type": "event"
    },
    {
      "anonymous": false,
      "inputs": [
        {
          "indexed": true,
          "internalType": "address",
          "name": "previousOwner",
          "type": "address"
        },
        {
          "indexed": true,
          "internalType": "address",
          "name": "newOwner",
          "type": "address"
        }
      ],
      "name": "OwnershipTransferred",
      "type": "event"
    },
    {
      "inputs": [
        {
          "internalType": "uint256",
          "name": "",
          "type": "uint256"
        }
      ],
      "name": "nodeList",
      "outputs": [
        {
          "internalType": "uint256",
          "name": "nodeID",
          "type": "uint256"
        },
        {
          "internalType": "string",
          "name": "MAC",
          "type": "string"
        },
        {
          "internalType": "string",
          "name": "certificate",
          "type": "string"
        },
        {
          "internalType": "address",
          "name": "nodeAdd",
          "type": "address"
        },
        {
          "internalType": "bool",
          "name": "active",
          "type": "bool"
        }
      ],
      "stateMutability": "view",
      "type": "function",
      "constant": true
    },
    {
      "inputs": [],
      "name": "owner",
      "outputs": [
        {
          "internalType": "address",
          "name": "",
          "type": "address"
        }
      ],
      "stateMutability": "view",
      "type": "function",
      "constant": true
    },
    {
      "inputs": [],
      "name": "renounceOwnership",
      "outputs": [],
      "stateMutability": "nonpayable",
      "type": "function"
    },
    {
      "inputs": [],
      "name": "totalNodes",
      "outputs": [
        {
          "internalType": "uint256",
          "name": "",
          "type": "uint256"
        }
      ],
      "stateMutability": "view",
      "type": "function",
      "constant": true
    },
    {
      "inputs": [
        {
          "internalType": "address",
          "name": "newOwner",
          "type": "address"
        }
      ],
      "name": "transferOwnership",
      "outputs": [],
      "stateMutability": "nonpayable",
      "type": "function"
    },
    {
      "inputs": [
        {
          "internalType": "address",
          "name": "nodeAddress",
          "type": "address"
        },
        {
          "internalType": "string",
          "name": "_mac",
          "type": "string"
        },
        {
          "internalType": "string",
          "name": "_certificate",
          "type": "string"
        }
      ],
      "name": "addNode",
      "outputs": [
        {
          "internalType": "bool",
          "name": "",
          "type": "bool"
        }
      ],
      "stateMutability": "nonpayable",
      "type": "function"
    },
    {
      "inputs": [
        {
          "internalType": "uint256",
          "name": "nodeID",
          "type": "uint256"
        }
      ],
      "name": "getNode",
      "outputs": [
        {
          "internalType": "uint256",
          "name": "",
          "type": "uint256"
        },
        {
          "internalType": "string",
          "name": "",
          "type": "string"
        },
        {
          "internalType": "string",
          "name": "",
          "type": "string"
        },
        {
          "internalType": "address",
          "name": "",
          "type": "address"
        },
        {
          "internalType": "bool",
          "name": "",
          "type": "bool"
        }
      ],
      "stateMutability": "view",
      "type": "function",
      "constant": true
    },
    {
      "inputs": [
        {
          "internalType": "uint256",
          "name": "nodeID",
          "type": "uint256"
        }
      ],
      "name": "deactivateNode",
      "outputs": [
        {
          "internalType": "bool",
          "name": "",
          "type": "bool"
        }
      ],
      "stateMutability": "nonpayable",
      "type": "function"
    },
    {
      "inputs": [
        {
          "internalType": "uint256",
          "name": "nodeID",
          "type": "uint256"
        }
      ],
      "name": "activateNode",
      "outputs": [
        {
          "internalType": "bool",
          "name": "",
          "type": "bool"
        }
      ],
      "stateMutability": "nonpayable",
      "type": "function"
    },
    {
      "inputs": [
        {
          "internalType": "string",
          "name": "_MAC",
          "type": "string"
        },
        {
          "internalType": "address",
          "name": "nodeAdd",
          "type": "address"
        }
      ],
      "name": "generateCertificate",
      "outputs": [
        {
          "internalType": "bytes32",
          "name": "",
          "type": "bytes32"
        }
      ],
      "stateMutability": "nonpayable",
      "type": "function"
    }
  ],
  "bytecode": "0x608060405234801561001057600080fd5b50600061001b61006a565b600080546001600160a01b0319166001600160a01b0383169081178255604051929350917f8be0079c531659141344cd1fd0a4f28419497f9722a3daafe3b4186f6b6457e0908290a35061006e565b3390565b6115ae8061007d6000396000f3fe608060405234801561001057600080fd5b506004361061009e5760003560e01c80638da5cb5b116100665780638da5cb5b1461034f5780639592d42414610373578063e900dff71461038d578063e9d638301461043c578063f2fde38b146104595761009e565b806310a36c06146100a3578063208f2a31146100d45780634f0f4aa9146101ef57806370ea25241461020c578063715018a614610345575b600080fd5b6100c0600480360360208110156100b957600080fd5b503561047f565b604080519115158252519081900360200190f35b6100f1600480360360208110156100ea57600080fd5b503561072d565b604051808681526020018060200180602001856001600160a01b031681526020018415158152602001838103835287818151815260200191508051906020019080838360005b8381101561014f578181015183820152602001610137565b50505050905090810190601f16801561017c5780820380516001836020036101000a031916815260200191505b50838103825286518152865160209182019188019080838360005b838110156101af578181015183820152602001610197565b50505050905090810190601f1680156101dc5780820380516001836020036101000a031916815260200191505b5097505050505050505060405180910390f35b6100f16004803603602081101561020557600080fd5b5035610880565b6100c06004803603606081101561022257600080fd5b6001600160a01b038235169190810190604081016020820135600160201b81111561024c57600080fd5b82018360208201111561025e57600080fd5b803590602001918460018302840111600160201b8311171561027f57600080fd5b91908080601f0160208091040260200160405190810160405280939291908181526020018383808284376000920191909152509295949360208101935035915050600160201b8111156102d157600080fd5b8201836020820111156102e357600080fd5b803590602001918460018302840111600160201b8311171561030457600080fd5b91908080601f016020809104026020016040519081016040528093929190818152602001838380828437600092019190915250929550610a9a945050505050565b61034d610ced565b005b610357610d99565b604080516001600160a01b039092168252519081900360200190f35b61037b610da8565b60408051918252519081900360200190f35b61037b600480360360408110156103a357600080fd5b810190602081018135600160201b8111156103bd57600080fd5b8201836020820111156103cf57600080fd5b803590602001918460018302840111600160201b831117156103f057600080fd5b91908080601f016020809104026020016040519081016040528093929190818152602001838380828437600092019190915250929550505090356001600160a01b03169150610dae9050565b6100c06004803603602081101561045257600080fd5b50356110a9565b61034d6004803603602081101561046f57600080fd5b50356001600160a01b0316611351565b6000610489611453565b6001600160a01b031661049a610d99565b6001600160a01b0316146104e3576040805162461bcd60e51b81526020600482018190526024820152600080516020611559833981519152604482015290519081900360640190fd5b6104eb611457565b600260008481526020019081526020016000206040518060a001604052908160008201548152602001600182018054600181600116156101000203166002900480601f0160208091040260200160405190810160405280929190818152602001828054600181600116156101000203166002900480156105ac5780601f10610581576101008083540402835291602001916105ac565b820191906000526020600020905b81548152906001019060200180831161058f57829003601f168201915b5050509183525050600282810180546040805160206001841615610100026000190190931694909404601f8101839004830285018301909152808452938101939083018282801561063e5780601f106106135761010080835404028352916020019161063e565b820191906000526020600020905b81548152906001019060200180831161062157829003601f168201915b5050509183525050600391909101546001600160a01b038082166020840152600160a01b90910460ff1615156040909201919091526060820151919250166106cd576040805162461bcd60e51b815260206004820152601e60248201527f6e6f646520646f6573206e6f7420657869737420696e206d617070696e670000604482015290519081900360640190fd5b600083815260026020908152604091829020600301805460ff60a01b1916600160a01b179055815185815291517fff84345edae2acde51028c59c7ebd73ed7ca2a0ddb6e34bf0f3871a22df5931a9281900390910190a150600192915050565b60026020818152600092835260409283902080546001808301805487519281161561010002600019011695909504601f81018590048502820185019096528581529094919390929091908301828280156107c85780601f1061079d576101008083540402835291602001916107c8565b820191906000526020600020905b8154815290600101906020018083116107ab57829003601f168201915b50505060028085018054604080516020601f600019610100600187161502019094169590950492830185900485028101850190915281815295969594509092509083018282801561085a5780601f1061082f5761010080835404028352916020019161085a565b820191906000526020600020905b81548152906001019060200180831161083d57829003601f168201915b505050600390930154919250506001600160a01b0381169060ff600160a01b9091041685565b6000606080600080610890611457565b600260008881526020019081526020016000206040518060a001604052908160008201548152602001600182018054600181600116156101000203166002900480601f0160208091040260200160405190810160405280929190818152602001828054600181600116156101000203166002900480156109515780601f1061092657610100808354040283529160200191610951565b820191906000526020600020905b81548152906001019060200180831161093457829003601f168201915b5050509183525050600282810180546040805160206001841615610100026000190190931694909404601f810183900483028501830190915280845293810193908301828280156109e35780601f106109b8576101008083540402835291602001916109e3565b820191906000526020600020905b8154815290600101906020018083116109c657829003601f168201915b5050509183525050600391909101546001600160a01b038082166020840152600160a01b90910460ff161515604090920191909152606082015191925016610a72576040805162461bcd60e51b815260206004820152601e60248201527f6e6f646520646f6573206e6f7420657869737420696e206d617070696e670000604482015290519081900360640190fd5b8051602082015160408301516060840151608090940151929a91995097509195509350915050565b6000610aa4611453565b6001600160a01b0316610ab5610d99565b6001600160a01b031614610afe576040805162461bcd60e51b81526020600482018190526024820152600080516020611559833981519152604482015290519081900360640190fd5b836000805b6001548111610b3e576000818152600260205260409020600301546001600160a01b0384811691161415610b3657600191505b600101610b03565b5060018115151415610b8d576040805162461bcd60e51b81526020600482015260136024820152726e6f646520616c72656164792065786973747360681b604482015290519081900360640190fd5b6001546001600160a01b038716610be5576040805162461bcd60e51b81526020600482015260176024820152761b9bd919481859191c995cdcc81a5cc81a5b9d985b1a59604a1b604482015290519081900360640190fd5b6040805160a08101825282815260208082018981528284018990526001600160a01b038b16606084015260016080840181905260008681526002845294909420835181559051805193949193610c4393928501929190910190611491565b5060408201518051610c5f916002840191602090910190611491565b506060820151600390910180546080909301511515600160a01b0260ff60a01b196001600160a01b039093166001600160a01b0319909416939093179190911691909117905560018054810190556040805182815290517f6d6c7890de6244cc4a4b2eba1686287aac49412a2f6c76007d085ff9cd8701ea9181900360200190a15060019695505050505050565b610cf5611453565b6001600160a01b0316610d06610d99565b6001600160a01b031614610d4f576040805162461bcd60e51b81526020600482018190526024820152600080516020611559833981519152604482015290519081900360640190fd5b600080546040516001600160a01b03909116907f8be0079c531659141344cd1fd0a4f28419497f9722a3daafe3b4186f6b6457e0908390a3600080546001600160a01b0319169055565b6000546001600160a01b031690565b60015481565b6000610db8611453565b6001600160a01b0316610dc9610d99565b6001600160a01b031614610e12576040805162461bcd60e51b81526020600482018190526024820152600080516020611559833981519152604482015290519081900360640190fd5b6060838360405160200180826001600160a01b031660601b81526014019150506040516020818303038152906040526040516020018083805190602001908083835b60208310610e735780518252601f199092019160209182019101610e54565b51815160209384036101000a600019018019909216911617905285519190930192850191508083835b60208310610ebb5780518252601f199092019160209182019101610e9c565b6001836020036101000a03801982511681845116808217855250505050505090500192505050604051602081830303815290604052905060006002826040516020018082805190602001908083835b60208310610f295780518252601f199092019160209182019101610f0a565b6001836020036101000a0380198251168184511680821785525050505050509050019150506040516020818303038152906040526040518082805190602001908083835b60208310610f8c5780518252601f199092019160209182019101610f6d565b51815160209384036101000a60001901801990921691161790526040519190930194509192505080830381855afa158015610fcb573d6000803e3d6000fd5b5050506040513d6020811015610fe057600080fd5b5051604080518281526001600160a01b038716918101919091526060602082810182815289519284019290925288519394507f29279862da013685304435fbe39d46243b789c470e5f5f7b7b1b60edc11553e59385938a938a939192909160808401919086019080838360005b8381101561106557818101518382015260200161104d565b50505050905090810190601f1680156110925780820380516001836020036101000a031916815260200191505b5094505050505060405180910390a1949350505050565b60006110b3611453565b6001600160a01b03166110c4610d99565b6001600160a01b03161461110d576040805162461bcd60e51b81526020600482018190526024820152600080516020611559833981519152604482015290519081900360640190fd5b611115611457565b600260008481526020019081526020016000206040518060a001604052908160008201548152602001600182018054600181600116156101000203166002900480601f0160208091040260200160405190810160405280929190818152602001828054600181600116156101000203166002900480156111d65780601f106111ab576101008083540402835291602001916111d6565b820191906000526020600020905b8154815290600101906020018083116111b957829003601f168201915b5050509183525050600282810180546040805160206001841615610100026000190190931694909404601f810183900483028501830190915280845293810193908301828280156112685780601f1061123d57610100808354040283529160200191611268565b820191906000526020600020905b81548152906001019060200180831161124b57829003601f168201915b5050509183525050600391909101546001600160a01b038082166020840152600160a01b90910460ff1615156040909201919091526060820151919250166112f7576040805162461bcd60e51b815260206004820152601e60248201527f6e6f646520646f6573206e6f7420657869737420696e206d617070696e670000604482015290519081900360640190fd5b600083815260026020908152604091829020600301805460ff60a01b19169055815185815291517f225b982f3f68d9ecd9aaa2ece1c491786e6e4bf7ac4028b1ce7024691475383c9281900390910190a150600192915050565b611359611453565b6001600160a01b031661136a610d99565b6001600160a01b0316146113b3576040805162461bcd60e51b81526020600482018190526024820152600080516020611559833981519152604482015290519081900360640190fd5b6001600160a01b0381166113f85760405162461bcd60e51b81526004018080602001828103825260268152602001806115336026913960400191505060405180910390fd5b600080546040516001600160a01b03808516939216917f8be0079c531659141344cd1fd0a4f28419497f9722a3daafe3b4186f6b6457e091a3600080546001600160a01b0319166001600160a01b0392909216919091179055565b3390565b6040518060a0016040528060008152602001606081526020016060815260200160006001600160a01b031681526020016000151581525090565b828054600181600116156101000203166002900490600052602060002090601f0160209004810192826114c7576000855561150d565b82601f106114e057805160ff191683800117855561150d565b8280016001018555821561150d579182015b8281111561150d5782518255916020019190600101906114f2565b5061151992915061151d565b5090565b5b80821115611519576000815560010161151e56fe4f776e61626c653a206e6577206f776e657220697320746865207a65726f20616464726573734f776e61626c653a2063616c6c6572206973206e6f7420746865206f776e6572a26469706673582212207f8f289358e72db107bb22b18669eeaba27fd039a032a4a2ca314201ad216ccf64736f6c63430007050033",
  "immutableReferences": {},
  "source": "// SPDX-License-Identifier: MIT\n\npragma solidity >=0.4.22 <0.9.0;\n\nimport \"./Ownable.sol\";\n\ncontract IoTACReg is Ownable { //IoT access control registration\n\n    uint256 public totalNodes; //total number of nodes\n    \n\n    struct Node {\n        uint256 nodeID; //the node id\n        string MAC; //the mac address for the Node\n        string certificate; // the certificate generated in a function on contract\n        address nodeAdd; //the address of the node for signing \n        bool active;\n    }\n    \n    mapping(uint256 => Node) public nodeList;\n\n    modifier nodeDoesNotExist (address nodeToAdd) {\n        bool check = false;\n\n        for (uint256 i = 0; i <= totalNodes; i++ ){\n            if (nodeList[i].nodeAdd == nodeToAdd) {\n                check = true;\n            }\n        }\n\n        require(check != true, \"node already exists\");\n        _;\n    }\n\n    event NodeAdded(uint256 nodeID);\n    event NodeDeactivated(uint256 nodeID);\n    event NodeActivated(uint256 nodeID);\n    event CertificateGenerated(bytes32 cert, string MAC, address nodeAdd);\n\n    //add new node\n    function addNode(\n        address nodeAddress, \n        string memory _mac, string memory _certificate) \n        onlyOwner nodeDoesNotExist(nodeAddress) public returns(bool) \n    {\n        uint256 nodeID = totalNodes;\n        //Node memory nodeCheck = nodeList[nodeID];\n        //check if node address does not exist in mapping already \n        require(nodeAddress != address(0), \"node address is invalid\"); \n        //require(nodeCheck.nodeAdd == address(0), \"node already exists in mapping\"); \n        nodeList[nodeID] = Node(nodeID, _mac, _certificate, nodeAddress, true);\n        totalNodes++;\n        emit NodeAdded(nodeID);\n        return true;\n    }\n\n    //return node data\n    function getNode(uint256 nodeID) \n        public view \n        returns (uint256, string memory, string memory, address, bool) \n    {\n        Node memory nodeCheck = nodeList[nodeID];\n        require(nodeCheck.nodeAdd != address(0), \"node does not exist in mapping\"); \n        \n        return (\n            nodeCheck.nodeID, nodeCheck.MAC, \n            nodeCheck.certificate, nodeCheck.nodeAdd, \n            nodeCheck.active\n            );\n    }\n    \n    //deactivate added/existing node from mapping\n    function deactivateNode(uint256 nodeID) onlyOwner public returns(bool) {\n        Node memory nodeCheck = nodeList[nodeID];\n        //deactivate node\n        require(nodeCheck.nodeAdd != address(0), \"node does not exist in mapping\"); \n        nodeList[nodeID].active = false;\n        emit NodeDeactivated(nodeID);\n        return true;\n    }\n\n    //activate added/existing node from mapping\n    function activateNode(uint256 nodeID) onlyOwner public returns(bool) {\n        Node memory nodeCheck = nodeList[nodeID];\n        //deactivate node\n        require(nodeCheck.nodeAdd != address(0), \"node does not exist in mapping\"); \n        nodeList[nodeID].active = true;\n        emit NodeActivated(nodeID);\n        return true;\n    }\n    \n    //generates a certificate based on sha256 hash of mac address + UID \n    function generateCertificate(string memory _MAC, address nodeAdd) \n        onlyOwner public returns(bytes32) \n    {\n        //convert address to string and concatenate mac and address\n        string memory macAndNodeAdd = string(abi.encodePacked(_MAC, abi.encodePacked(nodeAdd)));\n        bytes32 cert = sha256(abi.encodePacked(macAndNodeAdd));\n        emit CertificateGenerated(cert, _MAC, nodeAdd);\n        return cert;     \n    }\n        \n\n    /**\n    From Solidity documentation:\n    \n    Explicit data location for all variables of struct, \n    array or mapping types is now mandatory. \n    This is also applied to function parameters and return variables. \n    For example, change uint[] x = m_x \n    to uint[] storage x = m_x, \n    and function f(uint[][] x) \n    to function f(uint[][] memory x) where memory is the data location \n    and might be replaced by storage or calldata accordingly. \n    Note that external functions require parameters with a data location of calldata. \n    */\n}",
  "sourcePath": "/home/kyle/Documents/FYP/contracts/IoTACReg.sol",
  "compiler": {
    "name": "solc",
    "version": "0.7.5+commit.eb77ed08.Emscripten.clang"
  },
  "schemaVersion": "3.3.4",
  "updatedAt": "2021-03-04T11:20:41.053Z",
  "networkType": "ethereum",
  "devdoc": {
    "kind": "dev",
    "methods": {
      "owner()": {
        "details": "Returns the address of the current owner."
      },
      "renounceOwnership()": {
        "details": "Leaves the contract without owner. It will not be possible to call `onlyOwner` functions anymore. Can only be called by the current owner. NOTE: Renouncing ownership will leave the contract without an owner, thereby removing any functionality that is only available to the owner."
      },
      "transferOwnership(address)": {
        "details": "Transfers ownership of the contract to a new account (`newOwner`). Can only be called by the current owner."
      }
    },
    "version": 1
  },
  "userdoc": {
    "kind": "user",
    "methods": {},
    "version": 1
  }
}